:100000007428FF3FFF3FFF3FF80003088301D30040
:100010000408D4000A08D5008A017908DC007A08AF
:10002000DB007B08DA007C08DF007D08E0007E084A
:10003000DD007F08DE005608D8005708D900803060
:1000400083018F000C102608840083130130800286
:10005000840A031C800384033C30FB00FC01260857
:10006000840083130008F900840A0008FA0026219E
:100070007D08A2003C30FB00FC01260884008313AD
:100080000008F900840A0008FA0026217908A50072
:100090002008BE000230B5252208BE00BF01C323E0
:1000A0002008033EBE000230B5252508BE00BF0172
:1000B000C3235C08F9005B08FA005A08FB005F08DC
:1000C000FC006008FD005D08FE005E08FF005808A7
:1000D000D6005908D7005408840055088A005308F0
:1000E0008300F80E780E0900203084004A30842006
:1000F0000130D7001D30D6004A30840053308920AB
:10010000602904068001840A0406031D8128640016
:100110000034F90095208000840A04087906031948
:1001200000348A2883120313D600D71BA028571B3C
:10013000A82857088A005608D60A0319D70A820049
:100140008313571883175608D60A8400000808003E
:100150008301570C1F39831203178F008312031377
:10016000560C831203178D00831603178C170C147B
:1001700000000000831203170C0883015618C628DC
:10018000831203178C1B03140E0D83017F390800A3
:10019000EE3A6532693365372032E131E5394E0098
:1001A000DF27C525802CC12BD424501031265310B5
:1001B000412A54295200C7245424CF2F8025452694
:1001C0005423CF2F8025CE22452A5F29CB275500E7
:1001D0005F28CB274400D7275F27CB27550053281C
:1001E00057104124532A55103F2855104427C62242
:1001F00045005427D222501032265410CD24BA2262
:1002000045005427D222501031265410CD24BA2252
:1002100050004126C92C4727201D4C2800194C2886
:1002200080183018301D00182010201020102010C9
:1002300020102010201020100000183415343C34F9
:10024000003480348034023401340834FF01FD016D
:10025000FE017B087C04031D3029F901FA010034FA
:100260001F30FF040310FF0AFB0DFC0D031C332994
:10027000FC0CFB0C7C087A02031D40297B087902E8
:10028000031C48297B08F9027C08031C7C0AFA023B
:10029000FD0DFE0DFF0BFF1A3829FF1F5429FD0924
:1002A000FD0A0319FE03FE097D08FB007E08FC0021
:1002B0007F1F0034F909F90A0319FA03FA09003417
:1002C00083120313B001AF010230B100AA247725D5
:1002D000C0260130B2004230B30041265108B200BE
:1002E000500898252230B2004230B300412652080F
:1002F000B200500898252230B2004230B3004126A7
:100300005108B20050089825CC29210BA729A90A29
:100310000319AA0A0A30FB00FC012A08FA0029087E
:10032000F90026217908A9007A08AA005108B2002C
:10033000500898252908B2002A08B3001224510851
:10034000B200500898250230B200B3016726210898
:10035000023A031DCC29A9080319AA03A9030A30EC
:10036000FB00FC012A08FA002908F9002621790877
:10037000A9007A08AA005108B20050089825290857
:10038000B2002A08B30012245108B2005008982580
:100390000230B200B30167262925A100053A031DEA
:1003A0008529510AB200500898250230B200B301E5
:1003B00067262925A100053A03191E2A210B002AC8
:1003C000A70A0319A80A0A30FB00FC012808FA0052
:1003D0002708F90026217908A7007A08A800510A01
:1003E000B200500898252708B2002808B30012244C
:1003F000510AB200500898250230B200B3016726B6
:100400002108023A031DD929A7080319A803A70345
:100410000A30FB00FC012808FA002708F900262111
:100420007908A7007A08A800510AB2005008982558
:100430002708B2002808B3001224D129B201B20A59
:1004400001309825F130B2004130B3004126520806
:10045000B200500898250230B200B3016726292562
:10046000A100053A0319742A210B562AAD0A031973
:10047000AE0A0A30FB00FC012E08FA002D08F90034
:1004800026217908AD007A08AE005208B200500863
:1004900098252D08B2002E08B30012245208B2008D
:1004A000500898250230B200B30167262108023AAD
:1004B000031D2F2AAD080319AE03AD030A30FB005C
:1004C000FC012E08FA002D08F90026217908AD005C
:1004D0007A08AE005208B200500898252D08B200E4
:1004E0002E08B3001224272A520AB2005008982579
:1004F0000230B200B30167262925A100053A03198D
:10050000C12A210BA32AAB0A0319AC0A0A30FB004B
:10051000FC012C08FA002B08F90026217908AB0011
:100520007A08AC00520AB200500898252B08B20095
:100530002C08B3001224520AB20050089825023049
:10054000B200B30167262108023A031D7C2AAB08DA
:100550000319AC03AB030A30FB00FC012C08FA00C2
:100560002B08F90026217908AB007A08AC00520A62
:10057000B200500898252B08B2002C08B3001224B2
:10058000742A0C3086260A30FB00FC012A08FA0087
:100590002908F9002C262708FD070318FE0A280859
:1005A000FE077D08F9007E08FA003C30FB000030B1
:1005B000FC012C267D08CA007E08CB000A30FB0017
:1005C000FC012E08FA002D08F9002C262B08FD0747
:1005D0000318FE0A2C08FE077D08F9007E08FA00C1
:1005E0003C30FB000030FC012C267D08CC007E084E
:1005F000CD00B201B20A01309825A630B2004130D8
:10060000B30041260719022BB201B20A0130982526
:100610002830B2004230B3004126B201B20A0130A4
:1006200098251130B2004230B300412610144C30EE
:10063000A6005208A00087160712831203130708AA
:10064000F338B0008719452B4A30A6005108A000A6
:100650003108023A031D1D2B10100F08CF000E08A1
:10066000A4004E088F002308093E8E0010140716C0
:1006700087120A30B200013098251E30B200423095
:10068000B3004126B101B10A1D2B0719662B4C306E
:10069000A6005208A000310B1D2B10100F08CE0031
:1006A0000E08A3004F088F002408093E8E00101486
:1006B000871607120A30B200013098251A30B200AE
:1006C0004230B30041260230B1001D2B871D0719AF
:1006D0001D2BC026B201B20A013098259030B2001D
:1006E0004130B300412674288301AF010430B100CA
:1006F000882B1030B2002730802BE830B200033056
:10070000B300952B6430852B0A30B200B301952BD2
:100710003108013A0319842B033A0319822B013A59
:1007200003197D2B073A0319792B3308FC00320893
:10073000FB003008FA002F08F90026217D08B000E0
:10074000AF08031DA82BB008031DA82B310BAD2B40
:100750003008303EC426AF01AF0A3308FC0032082F
:10076000FB003008F900FA012C267D08AF02031CBB
:10077000B0037E08B002B103013031020318882BA8
:100780002F08303EC42E8301C0010430C200D72B95
:100790001030C3002730CF2BE830C3000330C40033
:1007A000E42B6430D42B0A30C300C401E42B42088C
:1007B000013A0319D32B033A0319D12B013A031938
:1007C000CC2B073A0319C82B4408FC004308FB0054
:1007D0003F08FA003E08F90026217D08C100C00844
:1007E000031DF72BC108031DF72B420BFC2B4108FF
:1007F000303EB426C001C00A4408FC004308FB0098
:100800004108F900FA012C267D08BE02031CBF0333
:100810007E08BF02C203013042020318D72B3E08F4
:10082000303EB42E8301B4010430B600262C1030C3
:10083000B70027301E2CE830B7000330B800332C47
:100840006430232C0A30B700B801332C3608013A43
:100850000319222C033A0319202C013A03191B2CEB
:10086000073A0319172C3808FC003708FB00330837
:10087000FA003208F90026217D08B500B4080319F2
:10088000B5080319482C3508303EC426B401B40A13
:100890003808FC003708FB003508F900FA012C265F
:1008A0007D08B202031CB3037E08B302B603013015
:1008B00036020318262C3208303EC42E8301AF01C5
:1008C0000430B100722C1030B20027306A2CE830AE
:1008D000B2000330B3007F2C64306F2C0A30B200BA
:1008E000B3017F2C3108013A03196E2C033A031926
:1008F0006C2C013A0319672C073A0319632C33084F
:10090000FC003208FB003008FA002F08F90026210D
:100910007D08B000AF080319B0080319942C300803
:10092000303EB426AF01AF0A3308FC003208FB00AA
:100930003008F900FA012C267D08AF02031CB00331
:100940007E08B002B103013031020318722C2F0867
:10095000303EB42E8316031381130113811201124A
:1009600081110111811001108B170B178B120B12C3
:100970008B110B118B100B108C130C138C120C128F
:100980008C110C118C100C1483128C130C138C1200
:100990000C128C110C118C100C1083160D130D12EF
:1009A0008D110D1083120D130D128D110D10831664
:1009B0008E140E1483128E0180308F00101290124C
:1009C0009015101590141010FF30831686008F308C
:1009D00087000330880083120800C026082DCF301E
:1009E000B2004130062DD530B2004130062DBE3068
:1009F000B2004130062DB530B2004130062DC63070
:100A0000B2004130062D9F30B2004130B300412684
:100A1000AF0100309326AF0A05302F02031C092DC9
:100A2000C0262925A100013A0319EF2C033A031926
:100A3000F32C013A0319F72C073A0319FB2C013A5E
:100A40000319FF2C033A0319032DDD30B2004130A6
:100A5000062D8301060A0319292D05309326060861
:100A6000B2003F2DB301B30A542D0230532D033091
:100A7000532D0430532D0530532D0630532D32089D
:100A8000EF3A03193B2D183A0319392D0C3A031983
:100A9000372D063A0319352D033A0319322D013A41
:100AA00003193D2D0730B3003308080083010811F6
:100AB0000F3093260816881608138813A8260530C9
:100AC0009326A8262130AF00AF0B642DA826053051
:100AD00093260812A8260D30AF00AF0B6D2D2830DD
:100AE0007926083079260C3079260630792E830154
:100AF00008110F3093260816881608138813A026AD
:100B000005309326A0262130B200B20B852DA026F9
:100B1000053093260812A0260D30B200B20B8E2DA0
:100B200028308626083086260E3086260630862E09
:100B30008301B300A72D32087F3EB82E3208BF3E96
:100B4000B82E32088F3EB82E3208CF3EB82E33086A
:100B5000013A03199B2D033A03199E2D013A0319FB
:100B6000A12D073A031D0800A42D8301BF00C42D49
:100B70003E087F3EB02E3E08BF3EB02E3E088F3E60
:100B8000B02E3E08CF3EB02E3F08013A0319B82DD3
:100B9000033A0319BB2D013A0319BE2D073A031D71
:100BA0000800C12D8301C800C81FD82D8817D92D72
:100BB0008813481FDD2D0817DE2D0813C81EE22DEF
:100BC0008816E32D8812481EE72D0816A82E081255
:100BD000A82E8301BC00BC1FEF2D8817F02D8813B1
:100BE0003C1FF42D0817F52D0813BC1EF92D88168F
:100BF000FA2D88123C1EFE2D0816A02E0812A02EDB
:100C00008301B01F112E2D30B426FF30FB00FC00F5
:100C10002F08F9003008FA002C267D08AF007E0866
:100C2000B0002F08AF003008B0005E2C8301B01F69
:100C3000272E2D30C426FF30FB00FC002F08F900C2
:100C40003008FA002C267D08AF007E08B0002F087F
:100C5000B2003008B300122CFD01FE010310FC0CA1
:100C6000FB0C031C3A2E7908FD077A0803187A0A50
:100C7000FE070310F90DFA0D7B087C0403190034FC
:100C80002E2E830108154C2E3308D7003208B20AE5
:100C90000319B30A922086263308D700320892201F
:100CA000003803190800442E830108155F2E300810
:100CB000D7002F08AF0A0319B00A9220792630080E
:100CC000D7002F089220003803190800572E8301FF
:100CD000B401B501702E00309326B40A0319B50A89
:100CE00033083502031D762E32083402031808003B
:100CF0006B2E8301C600D225C60EF030C60546080D
:100D0000D2251130C700C70B832E08008301BA001B
:100D1000E925BA0EF030BA053A08E9251130BB00D2
:100D2000BB0B902E08008301B6000430B70053308F
:100D3000B800B80B992EB70B972EB60B952E08005E
:100D400083018815BD01BD0ABD0BA42E88110800C2
:100D500083018815C901C90AC90BAC2E8811080086
:100D60008301C0000811792E8301C5000815792E72
:100D70008301B4000811862E0130B0260330932E73
:100D80000130B8260330932E8301B9000815862E52
:00000001FF
